:100000000C9434000C9451000C9451000C94050194
:100010000C9451000C9468010C9451000C94510004
:100020000C9451000C9451000C9451000C9451000C
:100030000C9451000C9451000C9451000C945100FC
:100040000C9451000C9451000C9438020C94510003
:100050000C9451000C9471000C9451000C945100BC
:100060000C9451000C94510011241FBECFEFD8E026
:10007000DEBFCDBF14E0A0E0B1E0E6E6F1E102C0F2
:1000800005900D92A831B107D9F724E0A8E1B4E0BA
:1000900001C01D92AC32B207E1F70E94E7010C9457
:1000A000B1080C940000ECE7F0E0108280818064DD
:1000B000808380818F778083808180628083EAE77C
:1000C000F0E01082808180688083808188608083F6
:1000D000808187608083EEE7F0E080818F6080839D
:1000E00008951F920F920FB60F9211242F933F93F2
:1000F0004F935F936F937F938F939F93AF93BF9330
:10010000EF93FF93EAE7F0E0808180618083809144
:100110000001813009F053C080912404811113C083
:1001200081E080932404ECE7F0E08081807F80838D
:10013000E9E7F0E0808180931C04808162E090E038
:100140000E9411053CC08130A1F482E08093240418
:10015000ECE7F0E08081807F81608083E9E7F0E078
:10016000808180931B04808161E090E00E941105F2
:1001700026C0823091F483E080932404ECE7F0E021
:100180008081807F82608083E9E7F0E080818093D6
:100190001A0480810E94320612C0833081F41092CA
:1001A0002404ECE7F0E08081807F83608083E9E7CE
:1001B000F0E080818093190480818093B300EAE7A6
:1001C000F0E0808180648083FF91EF91BF91AF91D7
:1001D0009F918F917F916F915F914F913F912F915F
:1001E0000F900FBE0F901F901895E8E6F0E0808109
:1001F00085608083EBE6F0E0808181618083EDE6BD
:10020000F0E080818068808308951F920F920FB67E
:100210000F9211248F9318990AC08BB184608BB907
:100220008BB18F7E8BB981E0809323041BC01C9916
:100230000AC08BB180618BB98BB18B7F8BB981E0A8
:10024000809323040FC0189B06C08BB18B7E8BB9A3
:100250001092230407C01C9B05C08BB18B7E8BB909
:10026000109223048F910F900FBE0F901F9018953E
:100270008AB18E7F8AB98AB182608AB9E0ECF0E0F7
:100280001082808182608083E1ECF0E010828081C6
:1002900088698083E2ECF0E0108280818660808350
:1002A0008FEC90E09093C5008093C4000895AC015A
:1002B00020E007C09091C00095FFFCCF3093C600AE
:1002C0002F5FFA01E20FF11D30813111F3CF089554
:1002D0001F920F920FB60F9211242F933F934F93BB
:1002E0005F936F937F938F939F93AF93BF93EF939E
:1002F000FF9380910001813009F044C04F9945C0BF
:1003000080910101813071F482E08093010182E0EB
:1003100091E00E94570160911C0486E090E00E94E9
:100320009F0833C0823071F483E08093010189E13A
:1003300091E00E94570160911B0485E090E00E94CB
:100340009F0823C0833071F484E08093010180E32F
:1003500091E00E94570160911A0482E090E00E94AF
:100360009F0813C0843089F481E08093010187E401
:1003700091E00E9457016091190483E090E00E948F
:100380009F0803C081E080930101FF91EF91BF912D
:10039000AF919F918F917F916F915F914F913F911D
:1003A0002F910F900FBE0F901F9018958EE591E042
:1003B0000E94570189E891E00E9457018BE991E082
:1003C0000E9457018DEA91E00E9457010895F89428
:1003D00085B1816185B984B18E7E84B984B186602E
:1003E00084B917B88BB180688BB98AB18F778AB915
:1003F0008AB184678AB90E9453000E94F5000E9466
:10040000380168E070E082E00E946A0460E081E008
:100410000E94490460E082E00E9449048FE39CE965
:100420000E94A10460E074E080E00E94F50560E0B5
:1004300074E080E00E94170678948FEB91E00E94B0
:1004400057010E94D601EAE7F0E080818064808352
:100450008BB180628BB98BB18F7B8BB9FFCF8091D1
:1004600027048093C6008BEC91E00E945701089509
:100470001F920F920FB60F9211240F931F932F9379
:100480003F934F935F936F937F938F939F93AF931C
:10049000BF93EF93FF93CF93DF931F92CDB7DEB758
:1004A0008091C600809327048091C00085FFFCCF17
:1004B000809127048983CE0101960E9471088C01E6
:1004C00090911D0491112DC190912204911187C02A
:1004D0008130A1F48BB180628BB98BB18F7B8BB9EA
:1004E00081E080930001109222040E942F028EED81
:1004F00091E00E9457010E94D601B5C18230C1F53A
:100500008BB180648BB98BB18F7D8BB982E0809386
:100510000001109222040E942F0285EF91E00E94B8
:1005200057010E94D60186E090E00E9497088093D0
:10053000180462E090E00E94110585E090E00E94BE
:1005400097088093180461E090E00E94110582E012
:1005500090E00E949708809318040E94320683E07E
:1005600090E00E949708809318048093B3007BC1A9
:10057000833061F58BB180668BB983E08093000195
:1005800081E0809322040E942F028CE092E00E947E
:10059000570182E292E00E94570188E492E00E94B3
:1005A000570180E692E00E94570188E792E00E949E
:1005B000570184E992E00E94570180EB92E00E948B
:1005C000570180ED92E00E9457014DC11092220424
:1005D0008DEE92E00E9457010E94D60144C10E9414
:1005E0002F02112703301105B9F13CF40130110538
:1005F00079F002301105F1F08BC00530110509F4D6
:1006000057C00CF43FC00630110509F46BC080C020
:100610008BB180628BB98BB18F7B8BB981E080937A
:100620000001109222048EED91E00E9457010E9479
:10063000D60119C18BB180648BB98BB18F7D8BB919
:1006400082E0809300011092220485EF91E00E94E5
:1006500057010E94D60107C181E080931D04809359
:10066000210480E093E00E94570182E292E00E9420
:10067000570182E193E00E94570182E293E00E94D9
:100680005701F1C081E080931D048093200483E32F
:1006900093E00E94570182E292E00E94570182E1BA
:1006A00093E00E94570182E293E00E945701DBC071
:1006B00081E080931D0480931F0485E493E00E94F1
:1006C000570182E292E00E9457018AE593E00E947E
:1006D000570185E693E00E94570181E793E00E946D
:1006E0005701C1C081E080931D0480931E0480E8FF
:1006F00093E00E94570182E292E00E94570184E950
:1007000093E00E9457018FE993E00E945701ABC02C
:1007100010921D04109222048AEA93E00E9457016D
:10072000A2C010921D04109222040E942F028091F8
:100730002104813011F510922104C80199278130DC
:10074000910519F0029759F014C08EEB93E00E94C6
:10075000570162E08FEF90E00E9411050EC08BEC14
:1007600093E00E94570162E080E090E00E94110552
:1007700004C089ED93E00E945701809120048130EC
:1007800011F510922004C80199278130910519F0C4
:10079000029759F014C08EEB93E00E94570161E07C
:1007A0008FEF90E00E9411050EC08BEC93E00E9449
:1007B000570161E080E090E00E94110504C089EDDE
:1007C00093E00E94570180911F04813041F51092FF
:1007D0001F04C80199278230910569F08330910583
:1007E00091F00197C1F48BEE93E00E9457018FEFD7
:1007F0000E94320614C083EF93E00E94570180E00C
:100800000E9432060CC08CEF93E00E9457018DE7E6
:100810000E94320604C089ED93E00E945701809146
:100820001E048130F1F410921E04112701301105CD
:1008300021F00230110549F010C087E094E00E94D9
:1008400057018FEF8093B3000CC08FE094E00E94BB
:1008500057018BE48093B30004C089ED93E00E94BC
:1008600057010E94D6010F90DF91CF91FF91EF9138
:10087000BF91AF919F918F917F916F915F914F91B8
:100880003F912F911F910F910F900FBE0F901F90CE
:100890001895813019F0823079F00895613031F483
:1008A000E0E8F0E08081806C80830895E0E8F0E08B
:1008B0008081806880830895613031F4E0E8F0E061
:1008C0008081806380830895E0E8F0E08081806229
:1008D0008083089510928000109281006830710525
:1008E00021F06115744039F00BC0E1E8F0E090812F
:1008F0009260908305C0E1E8F0E09081956090837C
:10090000813019F0823061F00895E0E8F0E08081F4
:1009100083608083E1E8F0E08081886080830895CF
:10092000E0E8F0E0808182608083E1E8F0E08081AF
:100930008861808381E090E0909326048093250471
:10094000089520912504309126042130310529F4A1
:100950009093870080938600089510922604109249
:10096000250408954F925F926F927F92AF92BF924B
:10097000CF92DF92EF92FF920F931F93CF93DF936B
:10098000CDB7DEB728970FB6F894DEBF0FBECDBF48
:1009900029013A01ED82FE820F8318870E946806C2
:1009A00069837A838B839C83A6019501698D7A8DF7
:1009B0008B8D9C8D0E9468069B01AC0169817A81B8
:1009C0008B819C810E94040869837A838B839C833A
:1009D000A3019201C801B7010E9468069B01AC0106
:1009E00069817A818B819C810E94D5069B01AC0133
:1009F000C601B5010E94690628960FB6F894DEBFBD
:100A00000FBECDBFDF91CF911F910F91FF90EF905F
:100A1000DF90CF90BF90AF907F906F905F904F909E
:100A20000895AF92BF92CF92DF92EF92FF920F9311
:100A30001F93613019F06230C9F16FC090932B049D
:100A400080932A049C0122953295307F3227207FA3
:100A5000322728513C4F3093290420932804BC01AD
:100A600080E090E00E94760724E42F932AEF2F93F2
:100A70001F921F920F2EA12CB12CFAE7CF2EF4E477
:100A8000DF2EF02DE12CF12C0FE713E420E030E015
:100A9000A9010E94B2040F900F900F900F900E9436
:100AA0004707709389006093880037C090932B04A8
:100AB00080932A049C0122953295307F3227207F33
:100AC000322728513C4F3093290420932804BC013D
:100AD00080E090E00E94760724E42F932AEF2F9382
:100AE0001F921F920F2EA12CB12CFAE7CF2EF4E407
:100AF000DF2EF02DE12CF12C0FE713E420E030E0A5
:100B0000A9010E94B2040F900F900F900F900E94C5
:100B1000470770938B0060938A001F910F91FF909D
:100B2000EF90DF90CF90BF90AF9008954F925F927B
:100B30006F927F92AF92BF92CF92DF92EF92FF922D
:100B40000F931F93CF93DF93CDB7DEB728970FB6E0
:100B5000F894DEBF0FBECDBF29013A01ED82FE82BF
:100B60000F8318870E94680669837A838B839C832E
:100B7000A6019501698D7A8D8B8D9C8D0E946806EA
:100B80009B01AC0169817A818B819C810E94040860
:100B900069837A838B839C83A3019201C801B70187
:100BA0000E9468069B01AC0169817A818B819C81DE
:100BB0000E94D5069B01AC01C601B5010E946906E1
:100BC00028960FB6F894DEBF0FBECDBFDF91CF9150
:100BD0001F910F91FF90EF90DF90CF90BF90AF905B
:100BE0007F906F905F904F90089594B1986094B902
:100BF000E0EBF0E0908193609083882321F0808186
:100C0000806C808305C0E0EBF0E0808180688083A9
:100C10006115744031F4E1EBF0E0808187608083FE
:100C20000895E1EBF0E080818160808308959AB1BE
:100C300098609AB9882321F084E28093B00005C0BF
:100C4000E0EBF0E08081806280836115744021F4E4
:100C500087E08093B1000895E1EBF0E0808181604E
:100C600080830895AF92BF92CF92DF92EF92FF926E
:100C70000F931F93682F70E080E090E00E9476074A
:100C800021E42F9320E22F931F921F920F2EA12C6D
:100C9000B12CF0ECCF2EF0E4DF2EF02DE12CF12C76
:100CA0000FE713E420E030E0A9010E9496050F90C1
:100CB0000F900F900F900E9447076093B4001F9110
:100CC0000F91FF90EF90DF90CF90BF90AF9008957D
:100CD0005058BB27AA270E9480060C94CA070E947E
:100CE000BC0738F00E94C30720F039F49F3F19F485
:100CF00026F40C94B9070EF4E095E7FB0C94B307C7
:100D0000E92F0E94DB0758F3BA17620773078407BD
:100D1000950720F079F4A6F50C94FD070EF4E09504
:100D20000B2EBA2FA02D0B01B90190010C01CA01A5
:100D3000A0011124FF27591B99F0593F50F4503E50
:100D400068F11A16F040A22F232F342F4427585F42
:100D5000F3CF469537952795A795F0405395C9F75A
:100D60007EF41F16BA0B620B730B840BBAF0915012
:100D7000A1F0FF0FBB1F661F771F881FC2F70EC0B1
:100D8000BA0F621F731F841F48F487957795679584
:100D9000B795F7959E3F08F0B0CF9395880F08F070
:100DA0009927EE0F9795879508950E94E9060C9470
:100DB000CA070E94C30758F00E94BC0740F029F4FC
:100DC0005F3F29F00C94B30751110C94FE070C946B
:100DD000B9070E94DB0768F39923B1F3552391F318
:100DE000951B550BBB27AA2762177307840738F09A
:100DF0009F5F5F4F220F331F441FAA1FA9F335D0F7
:100E00000E2E3AF0E0E832D091505040E695001CAA
:100E1000CAF72BD0FE2F29D0660F771F881FBB1F64
:100E2000261737074807AB07B0E809F0BB0B802D42
:100E3000BF01FF2793585F4F3AF09E3F510578F06E
:100E40000C94B3070C94FE075F3FE4F3983ED4F391
:100E5000869577956795B795F7959F5FC9F7880F42
:100E6000911D9695879597F90895E1E0660F771F94
:100E7000881FBB1F621773078407BA0720F0621B25
:100E8000730B840BBA0BEE1F88F7E09508950E9450
:100E9000E30788F09F5798F0B92F9927B751B0F022
:100EA000E1F0660F771F881F991F1AF0BA95C9F7EE
:100EB00014C0B13091F00E94FD07B1E008950C9488
:100EC000FD07672F782F8827B85F39F0B93FCCF33B
:100ED000869577956795B395D9F73EF4909580956B
:100EE000709561957F4F8F4F9F4F0895E89409C08B
:100EF00097FB3EF490958095709561957F4F8F4F4D
:100F00009F4F9923A9F0F92F96E9BB279395F69562
:100F1000879577956795B795F111F8CFFAF4BB0FE0
:100F200011F460FF1BC06F5F7F4F8F4F9F4F16C044
:100F3000882311F096E911C0772321F09EE8872FCE
:100F4000762F05C0662371F096E8862F70E060E08A
:100F50002AF09A95660F771F881FDAF7880F969503
:100F6000879597F9089597F99F6780E870E060E0AA
:100F700008959FEF80EC089500240A941616170632
:100F800018060906089500240A941216130614067A
:100F900005060895092E0394000C11F4882352F0DD
:100FA000BB0F40F4BF2B11F460FF04C06F5F7F4F95
:100FB0008F4F9F4F089557FD9058440F551F59F07C
:100FC0005F3F71F04795880F97FB991F61F09F3F36
:100FD00079F087950895121613061406551FF2CF5F
:100FE0004695F1DF08C0161617061806991FF1CFAF
:100FF00086957105610508940895E894BB276627D6
:101000007727CB0197F908950E9417080C94CA0717
:101010000E94BC0738F00E94C30720F0952311F00E
:101020000C94B3070C94B90711240C94FE070E948A
:10103000DB0770F3959FC1F3950F50E0551F629F3A
:10104000F001729FBB27F00DB11D639FAA27F00D21
:10105000B11DAA1F649F6627B00DA11D661F829F48
:101060002227B00DA11D621F739FB00DA11D621F2D
:10107000839FA00D611D221F749F3327A00D611D4A
:10108000231F849F600D211D822F762F6A2F11242C
:101090009F5750409AF0F1F088234AF0EE0FFF1F5F
:1010A000BB1F661F771F881F91505040A9F79E3FB6
:1010B000510580F00C94B3070C94FE075F3FE4F3F6
:1010C000983ED4F3869577956795B795F795E7950C
:1010D0009F5FC1F7FE2B880F911D9695879597F915
:1010E0000895FC0188279927E89421912032E9F39B
:1010F000293010F02E30C8F32B3241F02D3239F464
:10110000689404C00E948F08820F911D2191205382
:101110002A30C0F31EF4909581959F4F08957AE090
:10112000979F902D879F802D910D11240895F999F7
:10113000FECF92BD81BDF89A992780B50895262FDC
:10114000F999FECF92BD81BDF89A019700B40216BD
:1011500039F01FBA20BD0FB6F894FA9AF99A0FBE6B
:061160000895F894FFCF92
:1011660001010A477561726461646120706F736979
:101176006369F36E20310A0A000A47756172646179
:10118600646120706F73696369F36E20320A0A0026
:101196000A477561726461646120706F736963697F
:1011A600F36E20330A0A000A47756172646164614E
:1011B60020706F73696369F36E20340A0A000A0AA5
:1011C6002A2A2A2A2A2A2A2A2043686F6F73652028
:1011D6006F7065726174696F6E206D6F6465202A29
:1011E6002A2A2A2A2A2A2A0A000920312E204D6173
:1011F6006E75616C206D6F64650A000920322E20C1
:10120600454550524F4D206D6F64650A00092033E5
:101216002E205553415254206D6F64650A0A0048CA
:10122600656C6C6F20776F726C6400202D3E2053C6
:10123600656E7420636861726163746572000A4D3D
:10124600414E55414C204D4F44452053454C454356
:101256005445440A000A454550524F4D204D4F44CF
:10126600452053454C45435445440A000A555341CD
:101276005254204D4F44452053454C454354454414
:101286000A000A0A2A2A2A2A2A2A2A2A2043686FB0
:101296006F736520616E20616374696F6E202A2A00
:1012A6002A2A2A2A2A2A0A000920312E20476F20B4
:1012B600746F206D616E75616C206D6F64650A00D8
:1012C6000920322E20476F20746F20454550524F1B
:1012D6004D206D6F64650A000920332E20436F6E22
:1012E60074726F6C20646F6F72312773207365722E
:1012F600766F0A000920342E20436F6E74726F6C6D
:1013060020646F6F7232277320736572766F0A00DE
:101316000920352E20436F6E74726F6C20646972DB
:10132600656374696F6E277320736572766F0A0042
:101336000920362E20436F6E746F726C2076656CB2
:101346006F6369747927732044430A0A000A0A49BD
:101356006E76616C6964206F7074696F6E0A0A003C
:101366000A446F6F7220312073656C65637465641F
:101376000A000920312E204F70656E20646F6F724F
:101386000A000920322E20436C6F736520646F6F4C
:10139600720A000A446F6F7220322073656C6563AF
:1013A6007465640A000A446972656374696F6E2025
:1013B60073656C65637465640A000920312E204CE0
:1013C6006566740A000920322E2052696768740A1D
:1013D600000920332E2053747261696768740A000D
:1013E6000A56656C6F636974792073656C656374FE
:1013F60065640A000920312E20466173740A0009CB
:1014060020322E20536C6F770A000A0A0920496E93
:1014160076616C6964206F7074696F6E0A000A20C9
:101426004F70656E20646F6F720A000A20436C6FFE
:10143600736520646F6F720A000A20496E76616CCC
:101446006964206F7074696F6E0A000A204C6566C5
:10145600740A000A2052696768740A000A205374E5
:10146600726169676874000A20466173740A000A2B
:0814760020536C6F770A00009F
:00000001FF
